:020000040800F2
:100000004820002039020008A9220008471E0008E5
:10001000D1210008A9060008992B00080000000063
:10002000000000000000000000000000D5220008D1
:10003000AB06000800000000AB22000831230008D6
:10004000530200085302000853020008530200083C
:10005000530200085302000853020008530200082C
:10006000530200085302000853020008530200081C
:10007000530200085302000853020008530200080C
:1000800053020008530200085302000853020008FC
:1000900053020008530200085302000853020008EC
:1000A00053020008530200085302000853020008DC
:1000B00053020008530200085302000853020008CC
:1000C00053020008530200085302000853020008BC
:1000D00053020008812B00088D2B000853020008F2
:1000E000530200085302000853020008530200089C
:1000F000530200085302000853020008530200088C
:10010000530200085302000853020008530200087B
:100110005302000853020008D923000853020008C4
:10012000530200085302000853020008530200085B
:10013000530200085302000853020008530200084B
:10014000530200085302000853020008530200083B
:10015000530200085302000853020008530200082B
:10016000530200085302000853020008530200081B
:100170005302000853020008530200080000000068
:10018000530200085302000800F002F800F044F89F
:100190000AA090E8000C82448344AAF10107DA45E2
:1001A00001D100F039F8AFF2090EBAE80F0013F0F0
:1001B000010F18BFFB1A43F001031847A82A0000DB
:1001C000C82A0000103A24BF78C878C1FAD852076C
:1001D00024BF30C830C144BF04680C6070470000C1
:1001E0000023002400250026103A28BF78C1FBD840
:1001F000520728BF30C148BF0B607047642900F028
:100200001D81632900F0E481002070471FB502F0D2
:1002100017FD1FBD10B510BD00F014FA1146FFF711
:10022000F5FF02F0D7FC00F032FA03B4FFF7F2FF5B
:1002300003BC02F0C2FC000009488047094800479F
:10024000FEE7FEE7FEE7FEE7FEE7FEE7FEE7FEE786
:10025000FEE7FEE704480549054A064B70470000E3
:10026000C923000889010008481A002048200020FE
:10027000481C0020481C0020704753EA020C00F084
:1002800069802DE9F04B4FF00006002B1FBFB3FA39
:1002900083F503FA05F424FA05F65E4012BF16430F
:1002A000B2FA82F502FA05F4C5F120051EBF22FA62
:1002B00005FC44EA0C04203556EA044C4FEA144489
:1002C00018BF641C4FF000084FF00009904271EB1A
:1002D000030C39D3002919BFB1FA81F701FA07F6E7
:1002E000B0FA80F700FA07F6C7F120071EBF20FA20
:1002F00007FC46EA0C062037B6FBF4FCA7EB050723
:10030000103F07F01F0BCBF120060CFA0BFB2CFA69
:1003100006F644BFB3460026202FA4BF5E464FF02A
:10032000000B5BEA060C08BF4FF0010B19EB0B0941
:10033000ABFB027C48EB0608C01B06FB02CC0BFBA8
:1003400003CC71EB0C01C1E70B460246414648461F
:10035000BDE8F08B13B54FF000004FF00001AFF394
:100360000080BDE81C4070470FB4044910B503AAD3
:10037000029800F039F910BC5DF814FB240000204D
:100380002DE9F0410E460446002020622046E16837
:10039000884730B3252805D0D4E901219047206A49
:1003A000401CF2E7E168204600278847050018D086
:1003B000A5F14100192802D820354FF400673246D4
:1003C000294620462760FFF719FF40B1012804D0D5
:1003D000F61D26F007060836D8E7361DD6E728466C
:1003E000DAE7206ABDE8F08170B50C460546012ABF
:1003F00005D02878800600D5EA69002302E00123B1
:1004000005E05B1C934202D2E05C0028F9D1A869A8
:10041000E618C01AA861286A184428622846AFF373
:10042000008004E0D5E9012114F8010B9047B442A3
:10043000F8D32846AFF3008070BD00002DE9F041ED
:100440000646002410687529314616A510D0AFF372
:100450000080002802DA404213A507E031688A07CD
:1004600001D512A502E0490704D511A5012401E038
:10047000AFF3008000210A2206F1240709E0B0FB57
:10048000F2FCB0FBF2F302FB1C003030785418464B
:10049000491C0028F3D123462A463046BDE8F041E6
:1004A00000F033B8000000002D0000002B00000019
:1004B000200000004FF0000200B513469446964617
:1004C000203922BFA0E80C50A0E80C50B1F1200167
:1004D000BFF4F7AF090728BFA0E80C5048BF0CC015
:1004E0005DF804EB890028BF40F8042B08BF704773
:1004F00048BF20F8022B11F0804F18BF00F8012BE5
:10050000704770477047704770472DE9F0470D46B8
:1005100099469246044600F124080168880604D5ED
:10052000E06921F01001216000E00120A84201DD16
:10053000471B00E00027A1697A1902EB0900081A9D
:10054000A0612078C00602D42046AFF300800026C8
:1005500008E0D4E901211AF806009047206A401CFF
:10056000761C20624E45F4DB2078C0060AD5204672
:10057000AFF3008006E0D4E9012130209047206AE3
:10058000401C2062381EA7F10107F4DC07E0D4E923
:10059000012118F805009047206A401C2062281E9F
:1005A000A5F10105F3DC2046AFF3008020780006BA
:1005B00002D50220BDE8F0870120FBE710B54369B2
:1005C00013B1AFF3008001E0FFF70EFF012010BD73
:1005D000127800F124010A7000224A700122EDE72E
:1005E00011684FF0FF32E9E7074B70B50D467B44C9
:1005F00000F011F80446284600F020F810B14FF042
:10060000FF3070BD204670BDCB25000001694A1C3B
:1006100002610878704700B58FB0CDE90131002143
:10062000059105497944CDE9031011466846FFF765
:10063000A7FE0FB000BD0000E5FFFFFF007B00F04C
:1006400080007047754600F02BF8AE4605006946FD
:10065000534620F00700854618B020B5FFF7FAFD95
:10066000BDE820404FF000064FF000074FF00008B3
:100670004FF0000B21F00701AC46ACE8C009ACE834
:10068000C009ACE8C009ACE8C0098D46704710B598
:100690000446AFF300802046BDE81040FFF7C5BD1B
:1006A00000487047E8190020FEE7704710B50220A7
:1006B00001F0FCFD094B1860032001F0F7FD5860C4
:1006C00001461A68986810449860D8680844D86051
:1006D000BDE81040104600F021B8000000000020E6
:1006E00010B500210B4800F0A7FE0421094800F0D6
:1006F000A3FE0021084800F09FFE0421064800F0F8
:100700009BFE044800F0A0FDBDE81040024800F048
:100710009BBD0000380000208000002010B50C4672
:10072000014604A0FFF720FE2146BDE8104006A0C8
:10073000FFF71ABE456E636F646531436F756E7463
:10074000203D202564090000456E636F64653243D7
:100750006F756E74203D2025640D0A0072B6FEE7A9
:100760002DE9F0410446876D00F066F9064694F8DD
:1007700035000025022806D08020606584F83450BA
:100780000120BDE8F0812068016821F016010160B8
:100790002068416921F080014161206C08B9A06C9A
:1007A00020B12068016821F008010160206801681B
:1007B00021F0010101600CE000F03EF9801B0528EA
:1007C00007D920206065032084F8350084F8345070
:1007D000D7E720680068C007EED194F85C103F208E
:1007E0008840B860012084F8350084F83450002037
:1007F000C7E790F83510022903D080214165012018
:100800007047052180F835100068016821F001016A
:10081000016000207047000070B5044600F00CF93C
:100820000546601C02D004480078044400F004F936
:10083000401BA042FAD370BD280000202DE9F84FDC
:10084000DFF8BCA10022012503264FF00F090AF1B1
:10085000040BAAF1040E00BF0B6805FA02F4234052
:10086000A34270D10F7907F00307012F01D0022FA7
:1008700016D187684FEA420806FA08FC27EA0C07F7
:10088000D1F80CC00CFA08FC4CEA070CC0F808C000
:100890004768A7430C79C4F3001494403C43446078
:1008A0000C79E443A4070AD0C4684FEA420C06FA64
:1008B0000CF7BC438F6807FA0CF72743C7600C7925
:1008C00004F00304022C12D1D40800EB840CDCF8F1
:1008D00020405707FF0E09FA07F824EA0804D1F868
:1008E000108008FA07F848EA0408CCF82080046869
:1008F0004FEA420C06FA0CF7BC430F7907F00307E6
:1009000007FA0CF7274307604C6814F4403F70D097
:100910003C4C276847F480472760246822F003078F
:1009200004F480440094384C07EB040CDCF80848CD
:1009300097074FEA177809FA08F7BC43334FB842D4
:1009400002D1002724E054E0314FB84201D1012701
:100950001EE0304FB84201D1022719E02E4FB842B5
:1009600001D1032714E02D4FB84201D104270FE035
:100970002B4FB84201D105270AE02A4FB84201D1D6
:10098000062705E0284FB84201D1072700E00827D5
:1009900007FA08F72743CCF80878DAF800405746FA
:1009A000D1F804C09C435FEACC2C00D51C433C60CA
:1009B000DBF800405F46D1F804C09C435FEA8C2C12
:1009C00000D51C433C60DEF800407746D1F804C0F7
:1009D0009C435FEA8C3C00D51C433C60084F083FB9
:1009E0003C68D1F804C09C435FEACC3C00D51C4372
:1009F0003C60521C102AFFF42FAFBDE8F88F0000B6
:100A0000083C0140443802400030014000000240F0
:100A10000004024000080240000C024000100240A6
:100A20000014024000180240001C02400AB181611B
:100A300070470904FBE70000014880687047000028
:100A400028000020024881680278114481607047C4
:100A5000280000200B4810B5016841F400710160C6
:100A6000016841F480610160016841F480710160B6
:100A7000032000F06FF80F2000F006F800F024F8D3
:100A8000002010BD003C024070B50D4D04464FF4EF
:100A90007A712878B1FBF0F00A490968B1FBF0F0EF
:100AA00000F00CFB48B9102C07D200222146501E42
:100AB00000F030F800206C6070BD012070BD0000B7
:100AC00028000020340000200A4808B5016841F4DD
:100AD00080410160006800F4804000900548001FDC
:100AE000016841F080510160006800F08050009082
:100AF00008BD000044380240002809DB00F01F0256
:100B0000012191404009800000F1E020C0F800116F
:100B100070470000F0B40E4B1B680C46C3F3022371
:100B2000C3F10705042D00D90425191D072901D299
:100B3000002300E0DB1E012606FA05F1491E2140D4
:100B400099409E40761E16403143F0BC02F025B815
:100B50000CED00E0064900F0070208684FF6FF03BD
:100B6000184040EA0220034A104308607047000022
:100B70000CED00E00000FA052DE9F0470E460500F7
:100B800065D0DFF81481D8F80000F7B200F0070054
:100B9000B04207D288F80070D8F8000000F00700D3
:100BA000B04254D128683D4C810712D5400703D587
:100BB000206840F4E05020602878000703D52068C2
:100BC00040F4604020602068A96820F0F0000843ED
:100BD00020602878C0072DD030496868083901287E
:100BE00012D0022813D0032811D0096889070029E0
:100BF0002DDA216821F0030101432160FFF71CFF7A
:100C0000814641F2883A0EE009688903EFE70968F6
:100C10008901ECE7FFF710FFA0EB0901514502D96C
:100C20000320BDE8F0872068696800F00C00B0EB95
:100C3000810FEFD1D8F80010404601F00701B14212
:100C400007D90770006800F00700B04201D001200A
:100C5000E7E72878400705D52068E96820F4E050E8
:100C6000084320602878000706D52068296920F409
:100C7000604040EAC100206000F038F82168084A6E
:100C8000C1F30311515CC84006490860064800687A
:100C9000FFF7FAFE0020C4E7003C0240083802409B
:100CA0004A2C0008340000202C000020044805498C
:100CB00000680968044AC1F38221515CC84070474A
:100CC00034000020083802405A2C00080448054926
:100CD00000680968044AC1F34231515CC84070475A
:100CE00034000020083802405A2C0008154810B57E
:100CF000006810F00C02144813D01449042A0FD0D5
:100D0000082A0ED10F4C241F2268236802F03F02EC
:100D10005B0207D52068C0F38810A0FB010106E044
:100D2000084610BD2168C1F38811A1FB0001002312
:100D3000FFF7A3FA2168C1F30141491C4900B0FB48
:100D4000F1F010BD083802400024F40040787D0125
:100D50002DE9F84F04006ED02078DFF84C93C007DF
:100D6000A9F104054AD009F104000168C1F3810129
:100D7000012908D00068C0F3810002280AD1D9F8FF
:100D80000000400206D52868800337D56068002837
:100D9000E1D033E06068B0F5803F10D0B0F5A02F0F
:100DA000286810D020F480302860286820F4802043
:100DB00028606068A8B1FFF73FFE06460DE028688E
:100DC00040F48030F4E740F480202860F7E700BF6B
:100DD000FFF732FE801B642873D828688003F7D59C
:100DE0000CE0FFF729FE064605E000BFFFF724FEF2
:100DF000801B6428F0D828688003F7D42078DFF8B7
:100E0000AC8280074FF0000A3ED5A748001D01685C
:100E100011F00C0F08D00068C0F3810002280BD13C
:100E2000D9F80000400207D42868800716D5E0688A
:100E3000012800D112E033E1E068B8B10120C8F820
:100E40000000FFF7F9FD064605E000BFFFF7F4FDDF
:100E5000801B0228C0D828688007F7D52868216938
:100E600020F0F80040EAC10028600DE0C8F800A0BA
:100E7000FFF7E2FD064604E0FFF7DEFD801B0228D7
:100E80001FD828688007F7D42078000722D5864F1E
:100E900087486169703771B101210160FFF7CCFDAE
:100EA000064604E0FFF7C8FD801B022809D8386811
:100EB0008007F7D50EE0C0F800A0FFF7BDFD06469D
:100EC00005E082E0FFF7B8FD801B02287DD8386876
:100ED0008007F7D42078400768D5DFF8CCB1002729
:100EE0000BF13C0BDBF80000C0000BD4DBF800106A
:100EF00041F08051CBF80010DBF80000012700F032
:100F0000805000906B4E3068C00510D4306840F4BB
:100F100080703060FFF790FD009005E0FFF78CFDDA
:100F20000099401A022850D83068C005F6D55E4EA8
:100F3000A0686C3601280FD00528306810D020F04A
:100F400001003060306820F004003060A068B8B163
:100F5000FFF772FD00900FE0306840F00100F4E709
:100F600040F004003060F7E7FFF766FD0099411A92
:100F700041F28830814266D830688007F4D50EE0AF
:100F8000FFF75AFD009007E0FFF756FD0099411A60
:100F900041F28830814256D830688007F4D42FB1AE
:100FA000DBF8001021F08051CBF80010A069C8B325
:100FB0003D49091D0968C1F3810102294AD002286F
:100FC000504607D0C8F8600000E03CE0FFF734FD71
:100FD00004463BE04746C8F86000FFF72DFD064693
:100FE00005E000BFFFF728FD801B02282BD82868EA
:100FF0008001F7D4D4E907010843A16A2E4A4908C1
:1010000002EB0141626A41EA8211084394F82C1014
:1010100040EA0161C9F8001001203866FFF70CFDB5
:10102000044606E03EE000BFFFF706FD001B022875
:1010300009D828688001F7D534E000BFFFF7FCFC31
:10104000001B022802D90320BDE8F88F2868800120
:10105000F4D427E00128F7D0D9F80000E26900F4C1
:10106000800191421CD1226A00F03F01914217D1C8
:1010700047F6C071626A0140B1EB821F10D1A26ACB
:101080004FF0FF3300F4403103EB5202B1EB024F5B
:1010900006D194F82C1000F07060B0EB016F01D015
:1010A0000120D1E70020CFE704380240000047428A
:1010B000800E4742007000400000FFFF10B5401E48
:1010C000B0F1807F01D3012010BD4FF0E0246061BA
:1010D0000F21601701F061FD0020A0610720206151
:1010E000002010BD7047704770B590F83C20012A71
:1010F00032D0012480F83C40022280F83D20036871
:101100005A689D6822F070060A6832435A60134B91
:1011100002689A4214D0B2F1804F11D0104B9A421B
:101120000ED0104B9A420BD00F4B9A4208D00F4B67
:101130009A4205D00E4B9A4202D00E4B9A4204D1ED
:10114000496825F080031943916080F83D400021F3
:1011500080F83C10084670BD022070BD00000140C0
:101160000004004000080040000C00400004014062
:10117000004001400018004010B5040003D094F86E
:101180003D0010B107E0012010BD002084F83C00B4
:10119000204600F01FF8022084F83D00211D206841
:1011A00001F020F9012084F8460084F83E0084F81C
:1011B0003F0084F8400084F8410084F8420084F83D
:1011C000430084F8440084F8450084F83D00002082
:1011D00010BD000008B501681748814212D11748B8
:1011E000016841F0100101600068002200F0100069
:1011F000009001213620FFF78DFCBDE80840362025
:10120000FFF77ABC0D480E4A001D914207D10168D4
:1012100041F400310160006800F4003009E0094A3F
:10122000914207D1016841F480210160006800F417
:101230008020009008BD00000010004040380240AF
:10124000004401400048014090F83D10012901D0C0
:1012500001207047022180F83D100168CA6842F001
:101260000102CA6000681149884214D0B0F1804F71
:1012700011D00F4988420ED00E4988420BD00E493A
:10128000884208D00D49884205D00D49884202D0D5
:101290000C49884204D1816801F00701062903D076
:1012A000016841F001010160002070470000014029
:1012B0000004004000080040000C00400004014011
:1012C00000400140001800402DE9F0410D460400A7
:1012D00003D094F83D0018B108E00120BDE8F0818A
:1012E000002084F83C00204600F040F8022084F8FA
:1012F0003D002068816844F2070291438160211D0E
:10130000206801F06FF8226890689169166A2B686E
:10131000AF69034340F20330814341EA0721A868E3
:10132000EF6908434FF6FC418843E96840EA07202B
:10133000014328692F6A000140EA073008436968C1
:101340006D6926F0AA0646EA0515294393602268CE
:10135000906154F8460B0162012004F81F09E07502
:101360002076E0762077A0750020B7E7F0B587B04B
:10137000044614216846FFF79DF82B492268002493
:10138000294810390225294EB2F1804F1ED0284B32
:101390009A4219D1026842F002020260006800F02D
:1013A00002000590086840F002000860086869467D
:1013B00000F00200059030200090CDE90154304645
:1013C000CDE90345FFF73AFA07B0F0BD026842F0F5
:1013D00001020260006800F001000590086840F01A
:1013E00001000860086800F001000590086840F0FE
:1013F000020008600868012700F0020005904FF421
:1014000000400090CDE90154CDE903476946094801
:10141000FFF714FA08200090CDE90154CDE9034705
:1014200069463046CEE700004038024000040240E2
:10143000000400400000024070B590F83E60044691
:1014400090F83F5090F8423090F84320022021B1AC
:1014500004290ED0012E1BD114E0012E18D1012B2E
:1014600016D184F83E0084F8420001220021206851
:1014700020E0012D0CD1012A0AD184F83F0084F824
:10148000430014E0012D03D1012B01D1012A01D029
:10149000012070BD84F83E0084F83F0084F84200CB
:1014A00084F8430001220021206801F007F801229E
:1014B0000421206801F002F82068016841F0010170
:1014C0000160002070BD70472DE9F04104460068BE
:1014D000C66805694FF00007A90713D5B10711D5F4
:1014E000F91E01610120207720688069800720466D
:1014F00002D0FFF7E8FF04E000F0D0F8204600F04B
:1015000075F92777680716D5700714D521686FF02D
:1015100004000861022020772068806910F4407F71
:10152000204602D0FFF7CFFF04E000F0B7F82046D6
:1015300000F05CF92777280715D5300713D5216807
:101540006FF008000861042020772068C0698007D8
:10155000204602D0FFF7B7FF04E000F09FF82046D6
:1015600000F044F92777E80616D5F00614D521686F
:101570006FF010000861082020772068C06910F41F
:10158000407F204602D0FFF79EFF04E000F086F87F
:10159000204600F02BF92777E80708D0F00706D09F
:1015A00021686FF001000861204600F0C3F92806A9
:1015B00008D5300606D521686FF080000861204606
:1015C000FFF790FD680608D5700606D521686FF014
:1015D00040000861204600F0B7F9A8060AD5B00619
:1015E00008D521686FF0200008612046BDE8F04171
:1015F000FFF779BDBDE8F08170B586B004461421CF
:101600006846FEF757FF1F48256800211E4A02233F
:101610000324854210D1106840F01000106010685B
:1016200000F01000059060200090CDE90131CDE977
:101630000314694615480DE0154E1648B5420DD104
:10164000156845F002051560126802F00202059265
:1016500082150FE0FFF7F2F806B070BD0E4EB542EE
:10166000FAD1156845F002051560126802F0020211
:10167000059272150092CDE90131CDE90314694656
:10168000E8E700000040014030380240001002400E
:10169000004401400004024000480140704770B51A
:1016A000044690F83C0000260D4601280FD001208A
:1016B00084F83C006AB1042A1DD0082A2FD00C2AD5
:1016C0003FD00126002084F83C00304670BD022047
:1016D00070BD206800F000FF2068816941F00801BA
:1016E00081612068816921F004018161206881693C
:1016F0002A69114311E0206800F01EFF206881690B
:1017000041F4006181612068816921F48061816117
:10171000206881692A6941EA02218161D2E7206853
:1017200000F040FF2068C16941F00801C1612068F4
:10173000C16921F00401C1612068C1692A691143AE
:1017400011E0206800F062FF2068C16941F4006187
:10175000C1612068C16921F48061C1612068C169EB
:101760002A6941EA0221C161ACE710B5040003D047
:1017700094F83D0010B107E0012010BD002084F86E
:101780003C00204600F01EF8022084F83D00211D98
:10179000206800F027FE012084F8460084F83E000F
:1017A00084F83F0084F8400084F8410084F8420047
:1017B00084F8430084F8440084F8450084F83D0030
:1017C000002010BD08B500680649884208D10648C7
:1017D000016841F480310160006800F480300090BD
:1017E00008BD00000040014044380240704700003E
:1017F00010B50446022249B104290ED0082913D09D
:1018000094F84100012816D0012010BD94F83E0044
:101810000128F9D184F83E200FE094F83F00012818
:10182000F2D184F83F2008E094F840000128EBD181
:1018300084F8402001E084F841200122206800F073
:101840003DFE16492068164A884201D0904203D1D5
:10185000436C43F4004343642068884213D0B0F1E2
:10186000804F10D00F4988420DD00F4988420AD0CE
:101870000E49884207D0904205D00D49884202D0D7
:101880000C49884204D1816801F00701062903D080
:10189000016841F001010160002010BD000001401D
:1018A000000401400004004000080040000C00401B
:1018B000004001400018004030B504460D46006865
:1018C000002200F0FBFD194B41F2111120688A1033
:1018D000984202D0164B984209D1036A0B4206D1B6
:1018E000036A134203D1436C23F40043436420682A
:1018F000036A0B4206D1016A114203D1016821F04B
:101900000101016001203DB1042D08D0082D09D04E
:1019100084F84100002030BD84F83E00FAE784F8E6
:101920003F00F7E784F84000F4E7000000000140C2
:101930000004014000680349884201D1FEF7B6BEA9
:10194000704700000010004070477047704700006B
:10195000F8B5016804460868CA684B6910F00F0FB3
:101960004FF0000559D003F0010602F49077374399
:1019700065D0C10705D0D10503D5616C41F00101E7
:101980006164410705D5D90703D0616C41F00201BC
:101990006164810705D5D90703D0616C41F004016A
:1019A0006164010707D502F02001314303D0616C67
:1019B00041F008016164616C00293AD0800604D5C9
:1019C000900602D5204600F09FFF20684069616CB8
:1019D000C0F38010090700D460B3204600F046FE33
:1019E00020684069400621D52068143050E8001F67
:1019F00021F0400140E80012002AF5D1E06BA8B1C7
:101A00006E490165E06BFEF7F4FE002811D0E06B33
:101A1000016D01B0BDE8F040084783060FD593067D
:101A20000DD52046BDE8F84000F06EBF2046FFF718
:101A30008DFFF8BD2046FFF789FF6564F8BD266B72
:101A40002023012E7DD1C6067BD5D60679D5086820
:101A50004868009048694FF00206400641D5E16BA6
:101A6000086840680004000CE8D0A28D8242E5D9E5
:101A7000E085C869B0F5807F2DD020680C3050E833
:101A8000001F21F4807140E80012002AF5D120687F
:101A9000143050E8001F21F0010140E80012002A34
:101AA000F5D12068143050E8001F21F0400140E8D3
:101AB0000012002AF5D184F84230256320680C30EA
:101AC00050E8001F21F0100140E80012002AF5D173
:101AD000E06BFEF745FE6663A08DE18D401A81B292
:101AE0002AE0A08DE18D401A81B2E08D0028A5D0BA
:101AF0000029A3D022680C3252E8000F20F4907025
:101B000042E80007002FF5D12068143050E8002F7C
:101B100022F0010240E80027002FF5D184F842307E
:101B2000256320680C3050E8002F22F0100240E8B6
:101B30000023002BF5D166632046FFF706FFF8BDB2
:101B4000FFE705062BD5150629D594F84100212875
:101B5000F5D1A068B0F5805F01D12069B0B1206AED
:101B6000411C2162216800784860E08C401E00041E
:101B7000000CE084E3D12068C16821F08001C160DD
:101B80002068C16841F04001C160D8E7206A008840
:101B9000C0F308004860206A801C2062E5E7400628
:101BA000CDD55006CBD5CA68204622F04002CA6087
:101BB00084F8413000F046F9C1E700005D260008D6
:101BC00070B5040004D094F84100002510B106E07F
:101BD000012070BD84F84050204600F023F82420F6
:101BE00084F841002068C16821F40051C16020469A
:101BF00000F0ECFE2068016921F490410161206849
:101C0000416921F02A0141612068C16841F4005115
:101C1000C1606564202084F8410084F84200656357
:101C2000002070BDF0B587B0044614216846FEF769
:101C300041FC2A4F23680022294902240325072654
:101C40002848BB4221D1264B14331F6847F01007A8
:101C50001F601B6803F0100305930B6843F001033A
:101C60000B60096802AB01F0010105916902CDE941
:101C7000001483E864006946FEF7E0FD0022114687
:101C80002520FEF747FF252023E0174FBB4222D136
:101C9000134B10331F6847F400371F601B6803F4B1
:101CA000003305930B6843F001030B60096802AB36
:101CB00001F0010105910C21CDE9001483E86400D5
:101CC0006946FEF7BBFD002211462620FEF722FFE3
:101CD0002620FEF711FF07B0F0BD00000010014004
:101CE00030380240000002400044004090F842308A
:101CF000202B01D00220704721B11AB100230363C9
:101D000000F0EABE012070472DE9F04100681C494F
:101D100088422ED11B4D1C4E2846A968491CA9603B
:101D200000787218582802F8010C22D117A0FEF78B
:101D30001BFB0024A6F57A7705E0315D395516A026
:101D4000FEF712FB641CA8688442F6DB11A0FEF7C4
:101D50000BFB124800F0B2FC4FF47A710F48FEF70B
:101D6000A9FB002441F288310748EC60FEF7A2FB92
:101D7000AC60BDE8F041012202490948FFF7B6BF57
:101D80000044004014000020D005002052584C654B
:101D90006E3D25640D0A000025630000E801002067
:101DA000A01900202DE9F843044690F84100984618
:101DB00016460D46202802D00220BDE8F88385B1E2
:101DC0007EB100206064212084F84100FEF734FEDB
:101DD000A6848146E684A0682027B0F5805F02D003
:101DE00003E00120E9E7206910B12E4600250EE04E
:101DF00000260CE08021204600F089FEA8B9C6B17B
:101E000016F8010B21684860E08C401EE084E08CED
:101E10004B464FF00002CDF800800028EAD14FF089
:101E20004001204600F073FE40B184F84170032069
:101E3000C3E735F8020BC0F30800E3E784F841700C
:101E40000020BAE77047FEE72DE9F04387B0142180
:101E50006846FEF72FFB2A480024016841F0100174
:101E60000160016801F010010591016841F0010174
:101E70000160016801F001010591016841F0020172
:101E800001600068DFF87C9000F0020005900022FD
:101E900080214846FEF7CAFD0122DFF86C80D60398
:101EA00031464046FEF7C2FD012217033946484637
:101EB000FEF7BCFD4020CDE9000469464846029487
:101EC000FEF7BCFC802000900125CDE90154694655
:101ED00048460394FEF7B2FC0096CDE901546946EA
:101EE00040460394FEF7AAFCCDE9007502956946C9
:101EF00048460395FEF7A2FC07B0BDE8F08300005A
:101F000030380240000002400004024010B588B0A2
:101F10001C216846FEF7CEFA1548144900240160DA
:101F2000A721C0E9011442F20F71C0E90314802116
:101F30008161FFF721F908B1FEF710FC0C48FFF7AB
:101F400014FC08B1FEF70AFC6020CDE900040294FD
:101F50000022694606480494FFF7A1FB08B1FEF78A
:101F6000FDFB0348FFF748FB08B010BD00440140EB
:101F70005801002010B588B01C216846FEF79AFA77
:101F80001548144900240160A721C0E9011442F258
:101F90000F71C0E9031480218161FFF7EDF808B1EA
:101FA000FEF7DCFB0C48FFF7E0FB08B1FEF7D6FBC1
:101FB0006020CDE90004029400226946064804949A
:101FC000FFF76DFB08B1FEF7C9FB0348FFF714FBF1
:101FD00008B010BD00480140A001002010B58CB031
:101FE00024216846FEF766FA0024154809944FF04C
:101FF00080410A94C0E900144FF6FF71C0E9024124
:10200000046184610120CDE90004CDE90204049457
:10201000CDE905400794694609480894FFF754F94B
:1020200008B1FEF79BFB099409A905480A94FFF73C
:102030005BF8002801D0FEF791FB0CB010BD00004A
:102040003800002010B58CB024216846FEF732FA23
:1020500000241548099413490A94C0E900144FF666
:10206000FF71C0E90241046184610120CDE90004EF
:10207000CDE902040494CDE90540079469460A4875
:102080000894FFF721F908B1FEF768FB099409A944
:1020900005480A94FFF728F8002801D0FEF75EFBF8
:1020A0000CB010BD00040040800000201CB50024CE
:1020B0000F4800940D4901940160A721C0E9011463
:1020C00041F28731C16080218161FFF755F808B185
:1020D000FEF744FB0094694605480194FFF704F8B5
:1020E000002801D0FEF73AFB1CBD000000100040A4
:1020F000C800002010B588B01C216846FEF7DAF948
:102100001648154900240160A721C0E9011442F2D4
:102110000F71C0E9031480218161FFF726FB08B12C
:10212000FEF71CFB6020CDE9000402940022694602
:102130000A480494FFF7B3FA08B1FEF70FFB042234
:1021400069460648FFF7ABFA08B1FEF707FB0348FC
:10215000FFF752FA08B010BD004001401001002006
:102160000C4810B50A4901604FF4E131416000218B
:1021700081600C22C160C0E904128161C161FFF776
:102180001FFD002803D0BDE81040FEF7E7BA10BDE0
:1021900000100140581900200C4810B50A49016090
:1021A0004FF4E1314160002181600C22C160C0E93F
:1021B00004128161C161FFF703FD002803D0BDE86F
:1021C0001040FEF7CBBA10BD00440040A01900201B
:1021D000FEE700002DE9F04707460E4691461046FF
:1021E00000F07AF800252948294C4FF48051012F3E
:1021F00012D0022F2BD1274FCEB3012E27D1002290
:10220000FEF714FC218824A0FEF7AEF83968208878
:1022100048633868856319E0214FDFF88880C6B1CC
:10222000012E14D10022FEF701FCB9F1000F03D0FA
:10223000208800F5FA702080218817A0FEF794F816
:10224000396820884863D8F8000045632580BDE8D8
:10225000F0870022FEF7EAFB21880FA0FEF784F842
:1022600038684563D8F8001020884863EEE7FFE738
:102270000022FEF7DBFB218807A0FEF775F838681F
:102280004563396820888863E0E700000000024069
:10229000100000201001002025640D0A000000003D
:1022A00058010020A0010020FEE77047002102280D
:1022B00003D0032807D0002070474FF08042506AB7
:1022C000516200B27047024A1068116000B2704754
:1022D0002404004070470000002214490A2822D23A
:1022E000DFE800F02105080B0E1114171A1D4FF43A
:1022F0007A7016E040F2DC5013E04FF4FA6010E020
:1023000040F6C4100DE040F6B8300AE040F6AC509C
:1023100007E04FF47A6004E041F2941001E041F2EA
:102320008830088070470A80704700001000002045
:10233000FEF788BB30B593B030216846FEF7BAF897
:1023400014210CA8FEF7B6F81D480025016841F0DD
:1023500080510160006800F08050119019480168B8
:1023600041F4804101600068022400F48040119033
:102370000120039010200490009406940820CDE9D9
:102380000750A820CDE9090404200B906846FEF709
:10239000DFFC08B172B6FEE70CA90F2081E831001E
:1023A0004FF4A0500F904FF48050109005210CA8CE
:1023B000FEF7E2FB002801D072B6FEE713B030BD95
:1023C00040380240007000400248016841F470014A
:1023D0000160704788ED00E00148FFF775B8000024
:1023E000C8000020F0B50268294C2A4D2A4E2B4F18
:1023F0002B4B4FF0804CA04209D0604507D0A8423B
:1024000005D0B04203D0B84201D0984204D122F0A6
:10241000700E4A6842EA0E02A0421BD0604519D0F5
:10242000A84217D0B04215D0B84213D0984211D06C
:102430001C4DA8420ED01C4DA8420BD01B4DA842EB
:1024400008D01B4DA84205D01A4DA84202D01A4D03
:10245000A84203D122F44075CA682A434D6922F08C
:1024600080022A4302608A68C2620A688262A042CD
:1024700001D0984201D109690163012141610169DB
:10248000C90703D0016921F001010161F0BD00001D
:10249000000001400004004000080040000C004023
:1024A0000004014000400140004401400048014058
:1024B00000180040001C00400020004010B501F052
:1024C0001F030121046A99408C430462016A9A4007
:1024D0001143016210BD0000F0B5036A026A22F0E8
:1024E0000102026242688469124E24F073050C688E
:1024F0002C4323F002058B682B430D4DA84201D0DD
:10250000B04205D123F00807CB683B4323F0040316
:10251000A84201D0B04205D14D6922F44072154362
:102520008A692A4342608461496841630362F0BD5D
:102530000000014000040140F0B5026A036A23F084
:1025400010030362436884690D6824F4E64444EA96
:1025500005248D6822F0200242EA05120F4D104E2C
:10256000A84201D0B04206D1CF6822F0800242EAF0
:10257000071222F04002A84201D0B04207D14D69B3
:1025800023F4406343EA85038D6943EA850343608E
:102590008461496881630262F0BD0000000001406F
:1025A00000040140F0B5026A036A23F480730362F9
:1025B0004368C46922F4007224F073050C68124E5B
:1025C0002C438D6842EA05220E4DA84201D0B0424C
:1025D00006D1CF6822F4006242EA072222F4806228
:1025E000A84201D0B04207D14D6923F4405343EAD9
:1025F00005138D6943EA05134360C4614968C163EB
:102600000262F0BD000001400004014030B5046AE0
:10261000026A22F4805202624268C3690D6823F4A0
:10262000E64343EA05238D6824F4005444EA053464
:10263000084DA84202D0084DA84204D14D6922F4A9
:10264000804242EA85124260C361496801640462C3
:1026500030BD0000000001400004014010B5806B57
:102660000021C185C184FFF771F910BD01680C31EB
:1026700051E8002F22F4907241E80023002BF5D19D
:102680000168143151E8002F22F0010241E80023D3
:10269000002BF5D1016B012909D101680C3151E8FA
:1026A000002F22F0100241E80023002BF5D1202159
:1026B00080F8421000210163704700002DE9F047C7
:1026C000044600780125684F45281DD160783128DF
:1026D00003D032280CD065A014E03D70002165487D
:1026E000FFF786F800216448FFF782F863A009E04D
:1026F0007D7000216348FFF77BF804216148FFF7F4
:1027000077F861A0FDF730FE2078DFF8848100269D
:10271000DFF880A14FF40049442820D160783128A7
:1027200002D0322870D10CE03E70A8F80060002181
:102730005048FFF7C1F800214F48FFF7BDF856A0F9
:102740000BE07E70A8F8006000214E48FFF7B4F857
:1027500004214C48FFF7B0F851A0FDF705FE424FA9
:102760002078BF1E49280FD1A078312803D0322805
:1027700011D03EA006E060784E2809D0532871D1D0
:102780003E7049A0FDF7F0FD207853280ED023E0DD
:102790003D7047A0F6E760784E2804D0532861D1F9
:1027A0007E7045A0EEE77D7045A0EBE7607850288D
:1027B00058D1E0782C4D303805F1090510F0FF02B2
:1027C0002A7001D1A8F80060A078312808D03228FA
:1027D0001BD026A0FDF7C8FD20784F2827D031E078
:1027E000387850B10128F7D101210846FFF7F2FCF3
:1027F000297835A0FDF7B8FDEEE700210120FFF7AD
:10280000E9FC297833A0F5E71FE0787840B101288A
:10281000E2D101210220FFF7DDFC297830A0E9E7B1
:1028200000210220FFF7D6FC297830A0E2E760788B
:10283000502817D1002249465046FEF7F7F82EA03F
:10284000FDF792FD207844280CD16078502809D1FA
:10285000012249465046FEF7E9F8BDE8F04728A0B6
:10286000FDF782BDBDE8F087170000206572726F2A
:10287000720D0A0058010020A001002045310D0A08
:10288000000000001001002045320D0A0000000089
:10289000100000200004024044310D0A0000000036
:1028A00044320D0A000000004953310D0A000000B7
:1028B000494E310D0A0000004953320D0A00000054
:1028C000494E320D0A000000534E314E3A25640D38
:1028D0000A000000535031533A25640D0A000000ED
:1028E000534E324E3A25640D0A00000053503253C5
:1028F0003A25640D0A0000004F500D0A0000000048
:1029000044500D0A0000000008B590F8421022293A
:1029100001D0022008BD82684FF480539A4201D151
:10292000016921B1816A9A421BD04AB10AE002686A
:10293000816A5268C2F308020A80816A891C08E031
:10294000026972B10268526802F07F020A70816AFD
:10295000491C8162C18D491E0904090CC18503D03F
:102960001BE002685268F1E70168CA6822F02002A1
:10297000CA600168CA6822F48072CA6001684A6944
:1029800022F001024A61202180F8421000214163B7
:10299000026B012A03D0FFF7B7F9002008BD0163DD
:1029A00001680C3151E8002F22F0100241E80023A9
:1029B000002BF5D101680A68D20602D50A68496879
:1029C0000091818DFEF7C1FFE7E7000070B5044676
:1029D00000680169E26821F44051114301612169F5
:1029E000A068E26908436169114308432168CA6825
:1029F00049F20C639A430243CA6020684169A269A4
:102A000021F440711143416131492068884202D06C
:102A10003049884202D1FEF759F901E0FEF746F944
:102A2000E2690023192164253226B2F5004F62685D
:102A300028D0A0FB0101930F9200FDF71EFC014678
:102A4000B0FBF5F06FF01802504301EB800006EB8D
:102A50000010B0FBF5F000F0F002B1FBF5F002EB76
:102A60000012B1FBF5F06FF01803584301EB800042
:102A700006EB0010B0FBF5F000F00F0021681044E9
:102A8000886070BDA0FB010192185B41FDF7F5FB6A
:102A90000146B0FBF5F00201B1FBF5F06FF0180351
:102AA000584301EB800006EBC000B0FBF5F000F0EE
:102AB000F80002EB4002B1FBF5F0584301EB800057
:102AC00006EBC000B0FBF5F000F00700D6E7000011
:102AD000001001400014014081628285C2850021FE
:102AE0004164222180F84210016921B10168CA685D
:102AF00042F48072CA6001684A6942F001024A6188
:102B00000068C16841F02001C160002070472DE9D4
:102B1000F843984617460D460446089E24E0701C6C
:102B200022D0FDF789FFA0EB0800B0421AD8CEB141
:102B30002068C168490717D5802D15D0402D13D0C6
:102B40000168C94309070FD4016800254068009057
:102B50002046FFF78BFD0820606484F84050012078
:102B6000BDE8F8830320FBE72068006835EA000031
:102B700004D00020B842D2D00020F1E70120F9E7CC
:102B80000148FEF7E5BE0000581900200148FEF795
:102B9000DFBE0000A0190020FEE70907090E00288B
:102BA00004DB00F1E02080F80014704700F00F0013
:102BB00000F1E02080F8141D7047704713B54FF402
:102BC0007A73012269460248FFF7ECF800981CBDB1
:102BD000A0190020FDF73EFFFFF7ACFBFFF734F92B
:102BE000FFF7FCF9FFF762FAFFF790F9FFF7C2F978
:102BF000FFF7B6FAFFF726FAFFF77CFAFFF7CCFAF1
:102C0000FDF76EFD0B4C4FF48055002229462046FF
:102C1000FDF70CFF4FF49670FDF7FEFD01222946EB
:102C20002046FDF703FF012203490448FFF75EF841
:102C3000F4E700000000024014000020A01900206A
:102C40004FF04070E1EE100A7047000000000000F5
:102C50000000010203040607080900000000010249
:102C600003040000842C000800000020380000004D
:102C7000C4010008BC2C000838000020102000000F
:102C8000E00100080000000000000000000000005B
:102C90000000000000000000000000000000000034
:102CA0000000000000000000000000000100000023
:0C2CB00010000000000000000024F400F0
:040000050800018965
:00000001FF
